:10100000008000106B11000039110000E110000099
:101010002911000019110000091100000000000052
:1010200000000000000000000000000063A80000B5
:10103000FB1000000000000011A900004DA90000F5
:10104000FD110000FD110000C52A0000FD11000087
:10105000FD11000011910000FD110000FD110000C4
:10106000FD110000FD110000FD110000FD11000048
:1010700045770000FD110000FD110000FD1100008A
:10108000FD110000FD110000FD110000FD11000028
:10109000FD110000FD110000FD110000FD11000018
:1010A000FD110000FD110000FD110000FD11000008
:1010B000FD1100000D1B0000FD110000FD110000DE
:1010C000FD110000FD110000FD1100007849010034
:1010D000000000103409000038090010DC0C00008A
:1010E00004207146084203D0EFF3098009F0E8BC00
:1010F000EFF3088009F0E4BC704708B5014809F037
:1011000017FDFEE7233A010008B5024809F010FD7B
:10111000FEE700BF333A010008B5024809F008FDB8
:10112000FEE700BF403A010008B5024809F000FDA3
:10113000FEE700BF4B3A010008B5024809F0F8FC91
:10114000FEE700BF563A010010B5002302E01C582C
:101150005C5004339342FAD310BD00231A4601E0D9
:101160001A5004338B42FBD3704738B5134C144DDF
:1011700004E094E807000C34FFF7E6FFAC42F8D334
:1011800005E094E803000834FFF7E7FF00E00D4DA9
:10119000AC42F6D30CF030FE09F0E6FF00F0C4FDDF
:1011A00001F034FA09F04CFF81084FF416400AF0C0
:1011B00017F805480AF04CF8FEE700BFCC10000015
:1011C000D8100000E0100000C83A010008B502483D
:1011D00009F0AEFCFEE700BFE43A010008B50248A2
:1011E00009F0A6FCFEE700BFEF3A010008B502488F
:1011F00009F09EFCFEE700BFFE3A010008B5024878
:1012000009F096FCFEE700BF0E3B010010B5ADF5FE
:10121000806D05F006FF0028044608DD21460B48D6
:1012200009F024FE08F01AFF204608F08FFF6846F8
:1012300008F048FF0649074A074809F017FE6846C4
:101240000DF06EFA0DF5806D10BD00BF8029010014
:10125000B7290100BC2901009829010001F09FB9BC
:1012600010B54A4988B0044605F0B6FC002863D0A2
:101270002046474905F09AFC062803D0454809F066
:10128000F5FD81E042490122204606F01EF8404962
:101290000022204606F019F805F0C3FE9DF81D3027
:1012A0003B4960F30303002220468DF81D3006F011
:1012B0000CF805F0B6FE9DF81C30354960F30403C8
:1012C000002220468DF81C3005F0FFFF05F0A9FE36
:1012D000BDF81E302E4960F30B0300222046ADF806
:1012E0001E3005F0F2FF05F09CFE9DF81A302849EB
:1012F00060F30403002220468DF81A3005F0E5FF64
:1013000005F08FFE9DF81930214960F30503002296
:1013100020468DF8193005F0D8FF05F082FE9DF8C3
:10132000183060F3050308A800F8083D06F092FCA9
:101330002046194906F0A6F804AC204606F080FCC9
:1013400094E8030008AB03E903009DF81A00BDF818
:101350001E3000F01F0000909DF819009DF81D1030
:1013600000F03F0001909DF818009DF81C2000F04F
:101370003F00C3F30B03029001F00F0102F01F02C4
:101380009BB2064809F072FD08B010BDC2290100E9
:1013900096380100C6290100F0290100F429010056
:1013A00030B5294997B0044605F0D1FB0128054620
:1013B00003DC26480DF0B4F944E00021202203A804
:1013C0000DF0EAF800212A46204605F04BFF05F013
:1013D00026FE1F22014603A80DF038F82022002126
:1013E0000BA80DF0D9F8691C204605F0C2FF05F0E6
:1013F00016FE1F2201460BA80DF028F800231393B8
:101400001493159315AB00930BA903A813AA14AB5F
:1014100000F064FA014628B103AA0BAB0C4809F0AE
:1014200025FD0FE01399149B159A002908BF01218F
:10143000002B08BF0123B2FBF1F10648B2FBF3F227
:1014400009F014FD17B030BD96380100152A0100CF
:10145000462A0100652A01002DE9F043ADF5026D31
:1014600085B04049054605F09EFC3F4907462846A1
:1014700005F0C1FC3C49284605F0E1FC284605F092
:10148000CEFD01460DF500600430012204F018F88D
:10149000044638B1284605F0C2FD0146334809F03C
:1014A000E5FC5AE0CDF82C0808F08CFC01AD804634
:1014B0002F4E2CE0306882689368013B002B9360CC
:1014C00014DA91698B420CDB136815F809201A7045
:1014D00030688268136819780A2904D001331360D0
:1014E0000DE015F809100EF071FB08E0136815F80F
:1014F00009201A7033689B681A6801321A6009F172
:10150000010900E08146DDF82C389945D2D30DF56C
:1015100000600DF50263043029464FF400620C337D
:1015200004F0BAF830B9DDF82C381BB1E418002FFC
:10153000E8D1ECE70DF50060043004F06FFA67B90C
:1015400008F040FCB0EB080808BF4FF00108B4FBFE
:10155000F8F20848214609F089FC0DB00DF5006D40
:10156000BDE8F083932A0100963801009A2A010011
:1015700070000010AE2A01002DE9F0430023ADF504
:101580001F7D9D9305F04BFD8BAF044621463846E9
:1015900004F00DFB054621464148002D79D1414814
:1015A000214609F063FC94AB2E4603F109080BAB0E
:1015B0009A9338464FF4007394A99B9304F029FB47
:1015C000002852D19DF85932002B4ED09DF8580278
:1015D000C30602D50135442105E09D9A949B01364E
:1015E000D3189D932D2110F0010F0CBF2D225222F4
:1015F00010F0020F0CBF2D23482310F0040F0CBF76
:101600004FF02D094FF0530910F0200FBDF8540290
:101610000CBF4FF02D0C4FF0410C8DE800124FEA3B
:10162000602C0CF5F66CBDF856E20CF10C0CCDF804
:1016300008C0C0F3431C00F01F0004904FEAEE20E6
:101640000590CEF3451006909498CDF80CC0079005
:101650001548CDF8208009F009FC0BA9134809F0C2
:1016600005FC0A200DF020F8A1E731469EAE56F8A1
:10167000042D0F482B4609F0F9FB204631469CAA61
:1016800004F01CFB38B99C9B9D999B7809485943F1
:10169000490809F0EBFB0DF51F7DBDE8F08300BFA5
:1016A000C92A0100E22A0100FD2A0100262B0100BF
:1016B0002D2B0100572B010038B5044605F0AFFC77
:1016C0000546204605F0ABFC04F0AFFB054B064A8F
:1016D0002946002808BF1A460448BDE8384009F0EA
:1016E000C5BB00BF6B2B01006E2B0100742B0100EA
:1016F00037B50C462649054605F02BFC58B100F0DD
:1017000063F94E2300932349234A244B05F070F9D3
:10171000204623490FE02846224905F01AFC78B1FB
:1017200000F052F9522300931F491B4A1B4B05F04E
:101730006DF91E49204603B0BDE8304005F0A2BE59
:1017400028461B4905F005FC58B100F03DF9562329
:1017500000931849104A114B05F066F920461649C6
:10176000E9E72846154905F0F4FB30B100F02CF903
:1017700003B0BDE8304005F091B8284605F04FFCB5
:101780000F490246204603B0BDE8304005F011BEC7
:10179000122E01008F2B0100A02B0100382901001F
:1017A000C62B0100D32B0100D82B0100E92B01002F
:1017B000FB2B0100012C0100132C0100242C010043
:1017C0002A2C0100014B0360704700BFE82801008C
:1017D000014B0360704700BFE82801007047704765
:1017E00000207047014B0360704700BFE8280100EC
:1017F000034B10B50446036009F058FB204610BDAA
:10180000E8280100034B10B50446036009F04EFBC5
:10181000204610BDE8280100034B10B504460360C4
:1018200009F044FB204610BDE828010008F0D6BAB4
:101830000021C06B0A460B4607F044BE0021C06B76
:101840004FF0FF320B4607F0FABE0000037CF7B5FD
:101850000C4615468BB1002202AB00F1140643F88A
:10186000042D30462A4603F0CDFF30B93046019FA3
:1018700004F0A3F808B9BD422AD016480CF050FF76
:101880000026154F22E0386882689368013B002BE0
:10189000936012DA91698B420BDB1368A25D1A70B8
:1018A00038688268136819780A2903D001331360F5
:1018B0000BE0A15D0EF08AF907E01368A25D1A70D3
:1018C0003B689B681A6801321A600136AE42DAD171
:1018D000FEBD00BF43290100700000102DE9F04F4C
:1018E000ADF58A6D83B005460DF580680C46174648
:1018F0004046294601229A4603F0E2FD834600282D
:101900003DD10DF58569214648460A2203F0D8FDF0
:10191000834604464046BBF1000F2ED1CDF850B4AB
:10192000CDF854B45D465E4608F04CFA69468046F0
:101930004FF480620DF580600DF58A6303F0ACFE14
:10194000834648B9DDF8503433B11EE0DDF8503439
:10195000DDF854249A422DD007B13E60BAF1000F51
:1019600001D0CAF80050DDF8803403B11C600DF5D9
:10197000806004F053F80DF5856004F04FF8584688
:1019800017B00DF5806DBDE8F08F08F01BFAC8EBBD
:10199000000808F017FA0DF58A6346446946804648
:1019A000DDF850244846043303F02CFF834600281A
:1019B000D2D1CBE708F006FADDF85034C8EB0008C6
:1019C0004544E418B0E7000038B5144B1D6815BB5A
:1019D0004FF4107009F066FA00F1400343604FF4D1
:1019E000007383600E4BC56005740360044607F006
:1019F000DBFD04F11405E0630A492846122203F0D6
:101A00005FFD30B92846216A04F038F808B901238F
:101A10002374024B1C60014B186838BD3809001054
:101A200020290100852B010001480CF079BE00BF80
:101A3000802C010037B5054690F834020C4601F0C1
:101A4000A3FD002825D195F83402294603F006FDB0
:101A5000F8B902A905F50C7541F8040D6A46681D30
:101A600004F02CF9A8B9009A0199D0699578023848
:101A70006843694342084B08B2F57A7F38BF08488B
:101A800002D3C20A0748CB0A214609F0EFF9012028
:101A90003EBD0548214609F0E9F90020F8E700BFFE
:101AA000AB2C0100D92C0100072D01007FB50A22C3
:101AB000104903A80CF0CAFC31230F490F488DF8D8
:101AC0000C3009F0D3F900220A4803A9134600920A
:101AD000FFF704FF20B9074804F0A7F9084805E01C
:101AE000084B094A042814BF104618460CF018FE8B
:101AF00007B000BD852B0100872B01003C2D0100A4
:101B00002C2D0100322D0100252D010008B5054BBB
:101B10001B6803B19847044B1A7A42F001021A720B
:101B200008BD00BF3C09001000000B4070B5174B0A
:101B3000174DD3F8C4200E4642F48032C3F8C420B7
:101B4000D3F8AC21044622F04062C3F8AC21D3F8AC
:101B5000AC21002908BF012642F08062C3F8AC2105
:101B60000023EB606B6009F06BFA4FF47A73B3FB00
:101B7000F6F6B0FBF6F60A232E602B72054B4FF0FB
:101B800000521C60044B1A6070BD00BF00C00F40C3
:101B900000000B403C09001000E100E038B50224D1
:101BA000002500F0EDF9E1B206F00EF880B1B4F1D5
:101BB000380318BF0123402C0CBF002303F001039E
:101BC00033B1902C04D00548214609F04FF9012586
:101BD0000234B4F5807FE4D1284638BD562D01008B
:101BE00070B5454D2B686BB9202009F05BF90446B0
:101BF00000F0BAF900F0C4F9382323773F4BA06115
:101C000023602C603C4B3E4E186803681B68984765
:101C10003368044643B9182009F044F9054600F03A
:101C2000A3F9384B2B603560354B374E1868036885
:101C30001B6898473368002808BF002443B9182060
:101C400009F030F9054600F08FF9304B2B60356014
:101C50002D4B2F4E186803681B689847336800287F
:101C600008BF00246BB9202009F01CF9054600F0DC
:101C70007BF900F085F990232B77264BA8612B6028
:101C80003560234B244E186803681B68984700286A
:101C900008BF002400F084F903681B689847336884
:101CA000002808BF002443B91C2009F0FBF80546B2
:101CB00000F05AF9194B2B603560174B184E186815
:101CC00003681B6898473368002808BF002443B99D
:101CD000182009F0E7F8054600F046F9114B2B6093
:101CE00035600F4B186803681B689847002808BFC9
:101CF0000024204670BD00BF68090010703001004C
:101D00006C0900108830010070090010D03001000B
:101D1000740900100031010078090010B83001008A
:101D20007C090010E830010070B501F0A7FD02F059
:101D300085F905F077FF00F023F9C82105F0D8FCFC
:101D4000434C00F0C1F805F0C9FF08F011FE4FF454
:101D5000FA6000F003FC0A213E48FFF7E7FE236823
:101D6000DB070AD4204609F089FA30B107F01CFCE1
:101D7000394B1860204609F0A1FA374801F0FEFB04
:101D800000F0CEF83549FFF755FE0446C0B9344897
:101D900009F06CF800F0C4F82146224690F83402AD
:101DA00004F034FA2F4B304A002814BF104618466E
:101DB0000CF0B6FC00F0B4F82849FFF73BFE0446EF
:101DC0002A4D2E6816F0010617D1284609F056FA5A
:101DD00098B14FF40E7009F065F8012380F83432A1
:101DE000312380F835323A2380F83632204B80F8A0
:101DF00037621860284609F061FA1D4B1D491868C2
:101E0000FFF718FE14B108B1FFF750FE182005F0D7
:101E100047FFFFF709FEFFF7C1FE08B1FFF704FE19
:101E200000F0BDFBFFF700FEFFF7DAFE10B9124825
:101E30000CF076FC00F0B4F8044609F001F90F4B01
:101E4000B0FBF3F1C9B22046BDE8704000F0B0BE6F
:101E500040090010DD3F000044090010752D01000D
:101E60007D2D0100702D01001E2C01005009001075
:101E7000540900102B2F0100A62D010040420F0035
:101E8000044B10B5044640F8043B04F0DDFD204649
:101E900010BD00BF502C010010B50446FFF7F0FF45
:101EA000204609F003F8204610BD000010B5041DBF
:101EB0002046044905F0E6FA2046BDE8104005F04A
:101EC000AEB800BF602C010010B5124B124CD3F815
:101ED000C42042F48052C3F8C4204FF400122260A0
:101EE000D3F8A82122F04072C3F8A82109F0A8F87D
:101EF0000A4A80080023B0FBF3F1914204D822681B
:101F000042EA0323236010BD0233B3F5807FF2D190
:101F100010BD00BF00C00F4000400340FF1AB700D3
:101F200038B50F4C256815F0010516D1204609F08B
:101F3000A5F990B14FF40E7008F0B4FF302380F88B
:101F400035323A2380F83632064B80F8345280F826
:101F500037521860204609F0B1F9024B186838BDB5
:101F60005C09001060090010044B10B520210446E4
:101F700040F8043B05F058F9204610BD502C0100F4
:101F800038B5064C236833B91C2008F08BFF054692
:101F900005F0CEFB2560206838BD00BF5809001051
:101FA00038B50A4D2B686BB9202008F07BFF04463A
:101FB000FFF7DAFFFFF7E4FF40232377044BA0612C
:101FC00023602C60014B186838BD00BF6409001005
:101FD000A03001002DE9F8433B4D06468946A8464E
:101FE0000727286841684B68013B002B4B60A2BF64
:101FF0000B6813F8014B0B6002DA0CF0ABFDC4B2B6
:102000000A2C31D00D2C2FD0082C304633D104F0BF
:1020100023FD002807DD2D4808F028FF3046012168
:1020200004F087FE48E0286882689368013B002B33
:10203000936011DA91698B420ADB13681F7028687C
:102040008268136819780A2903D00133136033E0DA
:1020500007210DF0BBFD2FE013681F702B689B68F4
:102060001A6801321A6027E0D8F8000007E021461C
:102070000DF0ACFD1EE0214605F099F82868826855
:102080009368013B002B93600DDA91698B42EEDB84
:1020900013681C7028688268136819780A29E7D0C9
:1020A0000133136006E013681C702B689B681A6884
:1020B00001321A600A2C04D0304604F0CDFC4845A9
:1020C0008FDBBDE8F88300BF70000010D42D010045
:1020D0002DE9F041604C9AB0236833B9102008F024
:1020E000E1FE054606F0F0FF25604FF41641202280
:1020F0004FF48073206806F0C5FF584808F028FDAB
:10210000574808F01FFD002004232021029303906C
:10211000049005900CF00CFB049C0590A5000BE0CE
:10212000142008F0BFFE0021142206460CF034FAF9
:10213000059B01345E510435072CF1D908230DEBC2
:102140000305802105F12400039315AE05F06CF81A
:10215000802105F1380005F067F880213046002421
:1021600005F062F828463F493F4A404B00940194ED
:1021700004F054FB28463E493E4A3F4B00940194EC
:1021800004F04CFB28463D493D4A3E4B00940194E7
:1021900004F044FB28463C493C4A3D4B00940194E2
:1021A00004F03CFB28463B493B4A3C4B00940194DD
:1021B00004F034FB28463A493A4A3B4B00940194D8
:1021C00004F02CFB28463949394A3A4B00940194D3
:1021D00004F024FB384A394B2846394900940194CD
:1021E00004F01CFB3749284604F0F6FA0CF098FA84
:1021F0006427A846344808F039FE304604F031FC24
:10220000304604F02CFC01340146E4B23046FFF7BE
:10221000E1FEFFF7C5FEB4FBF7F107FB1141C9B2C0
:1022200000F0C6FC304604F017FC0028E2DD07F0A1
:10223000C9FD05460028DDD0304604F0F0FE014619
:10224000404604F0C9FA0CF06BFA07F0BBFD411BE5
:102250001E4808F00BFECDE780090010F390000047
:10226000DD9000000D120000CE2B0100D82D0100E2
:102270005D1200000F2E0100172E010061120000F8
:10228000722E01002F2E0100F1160000772E0100A2
:102290007B2E0100A1130000B92E0100BE2E01000B
:1022A00079150000022F0100052F010059140000CC
:1022B000332F0100382F01008B2F01008E2F0100DA
:1022C000B9160000B12F0100B62F0100BC2F01008C
:1022D0002DE9F0415C4DDFF8788100244FF48076E1
:1022E000642007F033FF00F0C9F8074600F0DAF881
:1022F00000F00AFD0146384600F095FC00F0D2F8E7
:10230000012100F007FD70B1FFF74AFE074600F01B
:10231000DDF800F09DFB00F5806191FBF6F1C9B29C
:10232000384600F045FC00F0BDF8022100F0F2FC58
:1023300070B1FFF735FE074600F0C8F800F092FBD9
:1023400000F5806191FBF6F1C9B2384600F030FC2F
:1023500000F0A8F8032100F0DDFC70B1FFF720FECB
:10236000074600F0B3F800F087FB00F5806191FBB1
:10237000F6F1C9B2384600F01BFC00F093F80521D5
:1023800000F0C8FC80B12B6843B9182008F08AFD22
:102390000746FFF7E9FDC7F800802F60286803684B
:1023A0005B6898470CF0BCF900F07CF8062100F05F
:1023B000B1FC98B100F0A4F803685B6898470CF092
:1023C000AFF9FFF7EDFD074600F09AF800F02AFF9D
:1023D0000AF01AFDC1B2384600F0EAFB00F062F8DC
:1023E000072100F097FC30B10134E4B2FFF7D8FDCB
:1023F000214600F0DDFB00F055F8082100F08AFCD2
:1024000030B1013CE4B2FFF7CBFD214600F0D0FB38
:10241000632C88BF002400F08DF800F0A1FB002899
:102420003FF45EAF00F086F800F0A2FB074600F034
:1024300025F8F9B200F0F7FB3946044808F016FD1C
:10244000642007F083FE4BE770090010D22F0100D3
:10245000D0300100F8B5084D04462B680F4633B95B
:102460001C2008F01FFD064605F062F92E602B685F
:10247000277123602046F8BD5809001038B5074D74
:102480002B6843B91C2008F00DFD0446FFF76CFDD6
:10249000034B23602C60014B186838BD780900108D
:1024A000B830010038B5074D2B6843B9182008F043
:1024B000F9FC0446FFF758FD034B23602C60014BE9
:1024C000186838BD7C090010E830010038B50A4DA5
:1024D0002B686BB9202008F0E5FC0446FFF744FDAB
:1024E00004F118003821FFF7B5FF044B23602C607E
:1024F000014B186838BD00BF68090010703001003A
:1025000038B50A4D2B686BB9202008F0CBFC044687
:10251000FFF72AFD04F118009021FFF79BFF044B01
:1025200023602C60014B186838BD00BF740900108F
:102530000031010038B5074D2B6843B9182008F069
:10254000B1FC0446FFF710FD034B23602C60014BE8
:10255000186838BD6C0900108830010010B50446B9
:1025600007F094FF012804D12046BDE8104007F091
:10257000EDBD4FF47A714C434FF040239A680A2125
:10258000B4FBF1F4A4189A68944202D29A68A24269
:10259000FCD84FF040239A68A242FCD310BD7FB50F
:1025A00002A808F087FC059B02A900930EC9024807
:1025B00008F05CFC07B000BDE12F010038B5074D05
:1025C0002B6843B9182008F06DFC0446FFF7CCFCDB
:1025D000034B23602C60014B186838BD880900103C
:1025E0003031010038B5074D2B6843B9182008F089
:1025F00059FC0446FFF7B8FC034B23602C60014BE9
:10260000186838BD84090010183101002DE9F04325
:1026100089B073490A2205A80BF018FF684604F038
:102620000FFEC820FFF79AFF6E4D6F4E4FF0010866
:102630002B6863B9202008F035FC0746FFF794FCAF
:1026400007F118009021FFF705FF3E602F60286812
:1026500003685B6898470146684604F013FFFFF77C
:10266000ADFF0746684604F0DAFC01220146384611
:1026700000F058FD684604F0D2FC0CF051F8FFF76A
:1026800011FF03681B68984700283FD0FFF70AFF37
:1026900000F03AFB002839D0FFF704FF03685B68BD
:1026A00098470146684604F0EDFEFFF787FF036890
:1026B0001B689847FFF782FF0746684604F0AFFCA7
:1026C00002220146384600F02DFDFFF7EBFE0368BD
:1026D00001275B6898470CF023F8FFF7E3FE3946C3
:1026E00000F018FB50B1FFF75BFCF9B200F060FAA4
:1026F000FFF7C4FE394600F0D2FA04E0FFF7BEFE51
:10270000394600F0C3FA0137092FE6D1FFF76AFF17
:10271000036805AF1B689847FFF764FF394600F070
:1027200066FB70B33946314808F0A0FBFFF738FC70
:102730009DF8141000F030FAFFF732FC9DF81510E8
:1027400000F01EFA68462A4904F09CFE39466846A5
:1027500004F038FDFFF732FF03681B689847FFF766
:102760002DFF8146684604F05AFC03220146484684
:1027700000F0D8FC07F1080313F8012DBB425A7092
:10278000FAD1FFF78FFE082100F0C4FA28B1FFF755
:1027900089FE012100F0BEFA18B9B8F1000F3FF42C
:1027A00047AF1449684604F06DFEFFF707FF036862
:1027B0004FF000081B689847FFF700FF022128220E
:1027C000012300F08BFBFFF7F9FE0746684604F093
:1027D00026FC00220146384600F0A4FC28E700BF92
:1027E000A12C0100740900100031010046300100E5
:1027F0004E30010053300100034A4CF2137311684C
:1028000001200B431360704720C00920024B0022B7
:102810001A700120704700BF40C00920044B0022FD
:102820005A821146FF229A700120D970704700BF6A
:1028300020C0092010B5041D427F837F0449204633
:1028400004F0B7FD2046BDE8104004F0E8BB00BF2F
:1028500040320100074B10B50021041D1A682046C4
:102860001960054904F0A5FD2046BDE8104004F0BC
:10287000D6BB00BF8C0900104A32010008B5012206
:10288000017F806905F0AAF910F0600F0CBF0020ED
:10289000012008BD08B505F021FA0B4BC2221A61D0
:1028A0001A68012042F480621A60084A116841F4F3
:1028B000004111601A6842F040021A601A6842F042
:1028C00080021A6008BD00BF0000034000C009205C
:1028D0002DE9F041051D06461049284604F0D2FDB9
:1028E0000724DFF844800E4F05E0032C03D128466F
:1028F0000C4904F067FC337E2846234113F0010F96
:102900000CBF4146394604F05DFC14F1FF34ECD2B3
:102910002846BDE8F04104F082BB00BF57320100F9
:10292000553201005E3201006E3801002DE9F041A0
:10293000051D2846104904F0A5FD0724DFF848804E
:102940000E4F0F4E06E0042C03D128460D4904F02B
:1029500039FC013C98F814302846234113F0010F4C
:102960000CBF3946314604F02DFC002CEBD1284633
:10297000BDE8F04104F053BB603201006E38010045
:10298000553201005E32010040C0092070B51A4B7B
:102990001A4CD3F8C420012542F00202C3F8C42027
:1029A000D3F8A821002622F03002C3F8A821D3F8DA
:1029B000A82142F01002C3F8A8216560266708F03C
:1029C0003FFB42F21073B0FBF3F0E060A36A2846CD
:1029D00023F00703A362A36A43F00603A362A66180
:1029E00063692B436361064BDA6842F03002DA60B8
:1029F000044B04221A6070BD00C00F4000800040EC
:102A000000C0024000E100E010B52A21044619226E
:102A100000F1180000F026FD0D22217FA06905F0CD
:102A2000DDF8A0F11A03584240EB030010BD08B5D1
:102A3000064B5A6822F440225A605A6842F48022B7
:102A40005A60FFF741FA012008BD00BF00C00240F4
:102A500008B51830012100F00FFD102300B290FBE3
:102A6000F3F008BD08B51830032100F005FD102370
:102A700000B290FBF3F008BD08B51830052100F056
:102A8000FBFC102300B290FBF3F008BDF7B507463E
:102A9000041DFFF7DDFF06463846FFF7E3FF054656
:102AA0003846FFF7E9FF06490090324620462B469C
:102AB00004F07FFC204603B0BDE8F04004F0AFBA5C
:102AC0006532010070B524490A680B4612F0100205
:102AD0000FD08A68C8328A61204A91881F2905D898
:102AE000DC6A02EB810001318460918010221A605F
:102AF00070BD0B68D9072ED5184B9888012824D9AA
:102B000008331946013807E051F8045F53F8044CC4
:102B100001322C1B43F8044C04338242F4DB0F498E
:102B20000124CB6803EB530500231A4609E001EBAF
:102B30008306B668AE4202D914FA03F63243013373
:102B40009BB28342F3DB054B1A60044B00229A8050
:102B5000014B01221A6070BD008000408C090010FA
:102B6000024B1868003018BF012070478C09001014
:102B7000024B002218681A60704700BF8C090010D1
:102B8000044B4177591891F8D8201830032100F0F0
:102B900069BC00BF68300100044B8177591891F877
:102BA000D8201830022100F05DBC00BF6830010061
:102BB000642370B5B1FBF3F503FB15150A21EDB2E3
:102BC000B5FBF1F601FB16513031C9B20446FFF7EF
:102BD000E3FF2021092D204602D93036F1B22046EC
:102BE000BDE87040CCE770B50446017F806904F011
:102BF000EBFF051C18BF01259DB104F118063046F6
:102C00000621002200F02EFC30460721002200F0B1
:102C100029FC20462E21FFF7B3FF20462E21FFF787
:102C2000BBFF284670BD184B4CF213720176DA6177
:102C3000CA0701D501229A61880701D502229A614B
:102C40004A0702D5104B10229A610B0742BF0E4B68
:102C50004FF480729A61C80642BF0B4B4FF400726A
:102C60009A618A0642BF084B4FF480629A614B0614
:102C700042BF054B4FF480429A61080642BF024BA7
:102C80004FF400429A61704720C0092001230139A6
:102C900013FA01F1037E23EA01010176C3E7012360
:102CA000013913FA01F1037E1943C9B20176BAE77B
:102CB0000A4B0B4A19680A401A601A6842F004026B
:102CC0001A601A6842F080721A605A68002AFCDAA8
:102CD000024B5868C0F30B10704700BF0040034020
:102CE00000FFFFF810B5041DFFF7E2FF6422424326
:102CF00004499212204604F05CFB2046BDE81040D7
:102D000004F08DB971320100014B187D704700BF8E
:102D100040C00920034B0139187D084100F0010033
:102D2000704700BF40C00920013903290ED8DFE8F1
:102D300001F00204060AF72202E0EF2200E0BF22BF
:102D4000034B9A757047024B7F229A75704700BFFC
:102D500020C009200139032919D8DFE801F0020752
:102D60000C110C4BD87D00F001000DE0094BD87D13
:102D7000C0F3400008E0074BD87DC0F3800003E0BB
:102D8000044BD87DC0F3001080F001007047002094
:102D9000704700BF20C009200A4BD87DDA7DDB7D5B
:102DA000910746BF00F0010080F00100022013F0FF
:102DB000040F044B08BF0320DB7D13F0100F08BF86
:102DC0000420704720C0092038B50546012421465B
:102DD0002846FFF7A9FF01342846FFF7DDFF052C41
:102DE000F5D110B16420FFF7B9FB002038BD2DE903
:102DF000F041104F06468846012400253046214602
:102E0000FFF792FF3046FFF7C7FF68B165B9C4F11D
:102E10000403C0F1040003EB80003B5CC82088F889
:102E20000030FFF79BFB01250134052CE6D1284635
:102E3000BDE8F081000000102DE9F041134D144F62
:102E400006460124A84630462146FFF76DFF30466E
:102E5000FFF7A2FF031C18BF0123454514BF002341
:102E600003F0010343B1C4F10403C0F1040203EB16
:102E7000820307EB83031D690134052CE3D110B1F4
:102E8000C820FFF76BFB2846BDE8F08119FCFFFF67
:102E9000000000102DE9F0410F4F0646884601243E
:102EA000002530462146FFF73FFF3046FFF774FF0D
:102EB00060B15DB9C4F10403C0F1040003EB80000C
:102EC00007EB800003690125C8F800300134052CA8
:102ED000E7D12846BDE8F0810000001070B51E461D
:102EE000194B15469A69FE2042F400429A61DA694C
:102EF0000C4642F40042DA6100F0D2FA412006B9F1
:102F0000422000F0CDFAFE2000F0CAFA522000F074
:102F1000C7FAE8B200F0C4FAFE2000F0C1FA53206C
:102F200000F0BEFAE0B200F0BBFAFE2000F0B8FA02
:102F3000512000F0B5FA0220FFF710FB024B9A690E
:102F400042F400429A6170BD00C0092010B50B4CDC
:102F5000FE20A36943F40043A361E36943F4004303
:102F6000E36100F09DFA412000F09AFA0120FFF79A
:102F7000F5FAA36943F40043A36110BD00C0092022
:102F800010B50B4CFE20A36943F40043A361E36931
:102F900043F40043E36100F083FA422000F080FA3A
:102FA0000120FFF7DBFAA36943F40043A36110BDDE
:102FB00000C0092010B50B4CFE20A36943F4004368
:102FC000A361E36943F40043E36100F069FA51202F
:102FD00000F066FA0220FFF7C1FAA36943F4004348
:102FE000A36110BD00C009204B1E032B10B50C4679
:102FF00054D82B4BFE209A6942F400429A61DA6958
:1030000042F40042DA6100F04BFA452000F048FA41
:10301000FE20022C0DD0032C12D0012C17D100F071
:103020003FFA452000F03CFA142000F039FA15244C
:1030300020E000F035FA452000F032FA5420F4E7A1
:1030400000F02EFA452000F02BFA2820EDE700F0E2
:1030500027FA452000F024FA672000F021FA20200A
:1030600000F01EFAFE2000F01BFA452000F018FACE
:103070006720DAE7FE2000F013FA4E2000F010FA85
:103080004FF4A570FFF76AFA013CF3D10320FFF774
:1030900065FA034B9A6942F400429A6110BD00BF81
:1030A00000C00920082938B50D4618D80C4CFE2060
:1030B000A36943F40043A361E36943F40043E3617C
:1030C00000F0EEF9532000F0EBF9E8B200F0E8F977
:1030D0000120FFF743FAA36943F40043A36138BD1D
:1030E00000C00920322938B50D4618D80C4CFE20F6
:1030F000A36943F40043A361E36943F40043E3613C
:1031000000F0CEF9522000F0CBF9E8B200F0C8F997
:103110000120FFF723FAA36943F40043A36138BDFC
:1031200000C00920032A38B50C4642D8214BFE20A6
:103130009969022A41F400419961D96941F4004139
:10314000D9610DD0032A12D0012A17D100F0A8F9B5
:10315000452000F0A5F9402000F0A2F9002517E075
:1031600000F09EF9452000F09BF91420F4E700F0F0
:1031700097F9452000F094F95420EDE700F090F91C
:10318000452000F08DF90020E6E700F089F90135CF
:10319000132D605DCCBF0023012300280CBF00234A
:1031A00003F00103002BF0D1024B9A6942F4004274
:1031B0009A6138BD00C0092038B50D46FFF7FAFE08
:1031C0000F4B00249A6942F400429A61DA6942F492
:1031D0000042DA6102E0013400F062F94F2C285D10
:1031E000CCBF0023012300280CBF002303F0010300
:1031F000002BF0D1024B9A6942F400429A6138BD2B
:1032000000C0092008B50021183000F035F910235E
:1032100000B290FBF3F009F02DFC4FF0765109F06D
:103220007DFC08BD08B5FFF7EDFF054909F076FC08
:10323000044909F027FD4FF0844109F067FB08BD00
:10324000000010410000A0402DE9FF410546FFF7B6
:10325000D9FF804609F0B2FD06462846FFF7E2FF97
:103260000746304609F006FC0146404609F04CFB93
:103270000E4909F053FC09F0A1FD2C1D4FF0B008D8
:1032800005463846CDF8008009F098FD08490190C0
:10329000324620462B46CDF8088004F08AF82046B6
:1032A00004B0BDE8F04103F0BABE00BF0000C84260
:1032B0007D320100034B10B504460360FEF7E0FDCC
:1032C000204610BD70300100054B10B50446036068
:1032D000FEF7D6FD204607F0E9FD204610BD00BFF1
:1032E00070300100034B10B504460360FEF7C8FDC3
:1032F000204610BD88300100054B10B50446036020
:10330000FEF7BEFD204607F0D1FD204610BD00BFF0
:1033100088300100034B10B504460360FEF7B0FD92
:10332000204610BDA0300100054B10B504460360D7
:10333000FEF7A6FD204607F0B9FD204610BD00BFF0
:10334000A0300100034B10B504460360FEF798FD62
:10335000204610BDB8300100054B10B5044603608F
:10336000FEF78EFD204607F0A1FD204610BD00BFF0
:10337000B8300100034B10B504460360FEF780FD32
:10338000204610BDD0300100054B10B50446036047
:10339000FEF776FD204607F089FD204610BD00BFF0
:1033A000D0300100034B10B504460360FEF768FD02
:1033B000204610BDE8300100054B10B504460360FF
:1033C000FEF75EFD204607F071FD204610BD00BFF0
:1033D000E8300100034B10B504460360FEF750FDD2
:1033E000204610BD00310100054B10B504460360B6
:1033F000FEF746FD204607F059FD204610BD00BFF0
:1034000000310100034B10B504460360FEF738FDA0
:10341000204610BD18310100054B10B5044603606D
:10342000FEF72EFD204607F041FD204610BD00BFEF
:1034300018310100034B10B504460360FEF720FD70
:10344000204610BD30310100054B10B50446036025
:10345000FEF716FD204607F029FD204610BD00BFEF
:103460003031010010B50C46017900681346224640
:10347000BDE8104004F0E7BA1FB50A4604AB0021CE
:10348000022423F8041D01790094006804F028FB4D
:103490009DF80C009DF80D3043EA002004B010BDEB
:1034A000044B9860DA68D206FCD4024B9868C0B22C
:1034B000704700BF000003407F2815D90B4B31B186
:1034C000FF2810D80A4B803833F81000704733F8C3
:1034D000022F824203D0013189B28029F7D101F154
:1034E0008000C0B270470020704700BF90320100DA
:1034F00092320100074A002300E0013332F8021F34
:1035000031B18842F9D1044A02EB4303B3F8E00237
:10351000704700BF903301009232010010B50C4695
:1035200006F042F82060003018BF012010BD0120D5
:10353000704710B5044606F0A9FF01280CD1002100
:103540000B46204640F6B83206F079F8A0F10103A8
:10355000584240EB030010BD012010BD10B50446D9
:1035600006F094FF012807D1002120460A460B46A9
:10357000BDE8104005F0A6BF10BD0000014B18606B
:10358000704700BF140A0010F8B5064606F07EFF2B
:10359000A0F101035D4245EB030501204DB1154B40
:1035A00000211B684FF0FF3218680B4606F047F801
:1035B000C0B204240F4F18E01EB10424012E06D11E
:1035C00002E000F08FFD01E000F09CFA044628467E
:1035D00055B13B68002118680A460B4605F072FF9A
:1035E000D0F1010038BF0020C0B20028E4D120464D
:1035F000F8BD00BF140A0010F8B5064606F046FFF5
:10360000A0F10102554245EB020501204DB1134BDB
:1036100000211B684FF0FF3218680B4606F00FF8C8
:10362000C0B204240D4F15E034462EB10424012EFF
:1036300002D100F00BFB0446284655B13B6800213F
:1036400018680A460B4605F03DFFD0F1010038BF6F
:103650000020C0B20028E7D12046F8BD140A0010AF
:103660002DE9F0478846814616461F4606F00EFFB4
:10367000A0F101014D4245EB010501204DB11B4B6D
:1036800000211B684FF0FF3218680B4605F0D7FF8A
:10369000C0B20424DFF854A022E0B9F1000F04D036
:1036A0000424B9F1010F0CD105E0404631463A46F9
:1036B00000F070FD04E0404631463A4600F0CCFA96
:1036C000044628465DB1DAF80030002118680A4641
:1036D0000B4605F0F7FED0F1010038BF0020C0B264
:1036E0000028DAD12046BDE8F08700BF140A001098
:1036F0002DE9F0478146884616461F4606F0C6FE6D
:10370000A0F10100454245EB000501204DB11B4BE6
:1037100000211B684FF0FF3218680B4605F08FFF41
:10372000C0B20424DFF854A022E0B9F1000F04D0A5
:103730000424B9F1010F0CD105E0404631463A4668
:1037400000F07CFD04E0404631463A4600F0CAFAFB
:10375000044628465DB1DAF80030002118680A46B0
:103760000B4605F0AFFED0F1010038BF0020C0B21B
:103770000028DAD12046BDE8F08700BF140A001007
:103780002DE9F84380460E46174606F07FFEA0F16D
:103790000104654245EB040501204DB1194B0021A0
:1037A0001B684FF0FF3218680B4605F048FFC0B2A7
:1037B0000424DFF8509020E0B8F1000F04D0042476
:1037C000B8F1010F0AD104E03046394600F05BFD44
:1037D00003E03046394600F0DBFA044628465DB186
:1037E000D9F80030002118680A460B4605F06AFE39
:1037F000D0F1010038BF0020C0B20028DCD1204643
:10380000BDE8F883140A0010024B4FF48002DA611D
:103810000120704700C00920064B4FF480029A61D6
:10382000054BFF229A60DA68D206FCD4024B0120D5
:103830009B68704700C00920000003400D4B3222F6
:1038400030B51A700C4BFF229A60D9680A4ACC0630
:10385000FBD408499368FF2413469460D868C006D7
:10386000FCD49868C0B2FF2802D00D78002DF4D1A6
:1038700030BD00BFBE150010000003400E4A536863
:1038800023F4405353600D4B196841F480011960D3
:103890004FF480019961116821F440511160516821
:1038A00021F0406151601A6822F040021A601A68E3
:1038B00022F000521A60704700C0024000C0092088
:1038C000704708B5064B4FF48002DA61FFF7B6FF88
:1038D000FFF7A2FF034B1A7842F001021A7008BDED
:1038E00000C0092050000010034B5B6913F0005F1B
:1038F00014BF00200120704700C00920F8B5294BF3
:10390000294D0A221A700446FF272A461E46AF6038
:10391000D06810F01000FBD19368DBB2FF2B03D10D
:1039200030780028F3D1F8BDFE2B3AD1B1F5007FF5
:1039300007D1204604F0FAF904F5807004F0F6F996
:103940001EE0194AFF20134615469060DE68F60611
:10395000FCD49E6826709860D668F606FCD49E68F3
:1039600066709860EE68F606FCD49E68A670986053
:10397000D668F606FCD49E68E67004340439E4D1B7
:10398000094BFF229A601A46D168074BC906FBD43F
:103990009A68FF229A60DA68D206FCD4024B0120B2
:1039A0009B68F8BDBC1500100000034070B50446CC
:1039B0000E46FFF743FFFF2830D1194B9E60DA68AF
:1039C000174DD006FBD4FD2EAB6825D0204604F061
:1039D0001DFF04F5807004F019FFFF23AB60EB6856
:1039E0000F4A13F0100FFAD19368FF239360D16848
:1039F0000B4BC906FBD49A68FF229A60DA68D2069C
:103A0000FCD4074B986800F01F00A0F1050CDCF116
:103A1000000040EB0C0070BD012070BD002070BDA7
:103A20000000034038B5030604460D4607D577204D
:103A30000021FFF7F7FF01285ED804F07F042F4B29
:103A40004FF480029A61DA61FFF7F8FEFF2852D145
:103A50002B4B9C601A46D168294BC806FBD49A6848
:103A60002A0E9A60DA6812F0100F254AFAD193688C
:103A7000C5F307439360D168214BC906FBD49A680C
:103A8000C5F307229A601A46D36813F0100F1C4B37
:103A9000FAD1EDB29A689D60DA68D006FCD4184B72
:103AA0009522402C9B6803D0482C0CBF8722012212
:103AB000134B9A601A46D168114BC906FBD44C2CA3
:103AC0009A6806D1FF229A60DA68D406FCD40C4BBF
:103AD0009B680B490A23FF240A468C60D068C00605
:103AE000FCD49068C0B210F0800F05D0013BDBB26F
:103AF000002BF2D138BDFF2038BD00BF00C0092027
:103B00000000034073B54C4B1A78920700F1918086
:103B1000012004F0C5F8494A0A24FF2113469160A8
:103B2000D868C006FCD4013CE4B29868002CF6D1F9
:103B3000434B4FF480024020DA612146FFF772FFC9
:103B4000012865D13F4D642348202B704FF4D57177
:103B5000FFF768FF012840D138492346FF200A4675
:103B60008860D46814F01004FBD1966801AD5E55EE
:103B70000133042BF4D19DF80630012B48D19DF878
:103B80000730AA2B44D12F4C237833B1E9204FF0D2
:103B90008041FFF747FF0028F6D12A4B1C78002C04
:103BA00036D07A200021FFF73DFF002400282FD1D6
:103BB000224AFF2113469160DC68E406FCD49D682C
:103BC00001AC055501300428F5D19DF8043013F0FF
:103BD000400F0CBF04240C241AE0E9202146FFF713
:103BE00021FF01288CBF012402248CBF4126E92635
:103BF0002B782BB130460021FFF714FF0028F7D1B6
:103C0000104B1B7823B150204FF40071FFF70AFFCF
:103C10000D4B1C70FFF700FE44B1074B18201A78BB
:103C200002F0FE021A7004F03BF801E0FFF749FED3
:103C3000014B18787CBD00BF50000010000003400D
:103C400000C00920BC150010BD150010014B1878EC
:103C5000704700BF5000001038B504461546002AD2
:103C600036D01D4B1B78DB0734D41C4B4FF480023D
:103C7000DA611B4B1B78180758BF4902012D0DD183
:103C80005120FFF7CFFEE8B920464FF40071FFF74F
:103C900035FED0F1010538BF002513E05220FFF7B3
:103CA000C1FE78B920464FF40071FFF727FE28B116
:103CB000013DEDB204F50074002DF3D14C2000213C
:103CC000FFF7B0FEFFF7A8FD281C18BF012038BD84
:103CD000042038BD032038BD5000001000C009206A
:103CE000BD15001070B505460C461646002A43D097
:103CF000244B1A78D00741D41B78590740D4224B63
:103D00004FF48002DA61214B1B781A0758BF640216
:103D1000012E0DD158202146FFF784FE30BBFE2135
:103D20002846FFF743FED0F1010638BF00261DE00C
:103D300013F0060F03D0D7203146FFF773FE59204A
:103D40002146FFF76FFE88B92846FC21FFF72EFEBB
:103D500028B1013EF6B205F50075002EF4D1002021
:103D6000FD21FFF723FE002808BF0126FFF754FDC1
:103D7000301C18BF012070BD042070BD032070BD31
:103D8000022070BD5000001000C00920BD150010B9
:103D9000F0B5042885B00C4614D10B78012B0BD05C
:103DA00003D3022B40F00C8108E0FFF79DFD0028B3
:103DB00000F00681FFF785FD002504E1FFF794FD83
:103DC0006070F9E7814B1B78DD0700F1FB800E285E
:103DD00000F2F080DFE810F00F001A0055005900E3
:103DE000EE00EE00EE00EE00EE00EE00B500BA00D0
:103DF000BC00C500D800764B4FF48002DA61FFF7B3
:103E00001DFDB0F1FF0518BF0125D6E049200021B6
:103E1000FFF708FE0546002840F0CE8068461021D6
:103E2000FFF76CFD002800F0C7809DF800309B096B
:103E3000012B9DF8083007D19DF80920013202EBD3
:103E400003239BB29B024CE09DF807209DF80510D0
:103E5000920002EB93135A1C9DF8063001F00F01FB
:103E600003F0030302EB83239DF80A2001EBD21138
:103E70009DF8092002F0030201EB4202073A934049
:103E80002FE04FF400730B805EE0524D297811F063
:103E9000040128D0CD200021FFF7C4FD002840F008
:103EA0008B804D4BFF229A60DA684B4FD006FBD4D3
:103EB00068461021BB68FFF721FD00287CD0302523
:103EC000FF223B46BA60D968C906FCD4013DEDB279
:103ED0009968002DF6D19DF80A3010221B0912FABC
:103EE00003F3236069E04920FFF79CFD06460028A4
:103EF00062D168461021FFF701FD00285CD02D78C3
:103F00009DF80A2015F002059DF80B300DD09DF8A4
:103F10000D1002F03F02DB0903EB42038909013374
:103F200001398B403546236047E0C2F38402511CBF
:103F300003F003025B0903EBC20201324A43226031
:103F40003BE0244B1B780B70002536E0492000E055
:103F50004A200021FFF766FD00282DD120461021C0
:103F600021E07A200021FFF75DFD28BB1A4AFF21DE
:103F700013469160DD6815F01005FBD19E6826544C
:103F800001300428F5D118E0CD200021FFF74AFDCB
:103F900090B9114BFF229A60DA68D506FCD40E4B1B
:103FA00020469B684021FFF7A9FCD0F1010538BFEE
:103FB000002502E0042500E00125FFF72DFC02E0CA
:103FC000054600E00325284605B0F0BD500000106E
:103FD00000C00920BD15001000000340124B1A78E4
:103FE00012B1013AD2B21A70104B1A7812B1013ADA
:103FF000D2B21A700E4B0F4A1978526902F0400281
:10400000D2B21A701A7891420DD10B490A781B78F6
:104010005B064CBF42F0040302F0FB03044A03F0CA
:10402000FD0312780B707047BC150010BE15001010
:10403000180A001000C0092050000010064B5A68F2
:1040400022F003025A60054B1A6842F480321A606B
:104050004FF480329A61704700C0024000C00920CE
:10406000F8B500F029F900240746094E4FF48035D1
:1040700009E0D72000F02AF9FF2000F027F9010617
:10408000FAD5B5610134E319012BF2D1F8BD00BFB7
:1040900000C009202DE9F04704460D4616469A4611
:1040A000FFF7DEFF00F008F9DFF8349007464FF421
:1040B000803811E0822000F009F9504600F006F93E
:1040C000304600F003F9284600F000F9204604F0DD
:1040D0009DFB0137C9F81880012FEBD1BDE8F087AF
:1040E00000C009202DE9F041FFF7BAFF00F0E4F825
:1040F000002480462546254F4FF4803608E0D7201F
:1041000000F0E4F8FF2000F0E1F801340546BE615C
:1041100004EB0803012BF2D100F0CEF80024804616
:104120001A4F20464FF4803607E09F2000F0CEF86B
:10413000FF2000F0CBF80134BE6104EB0803012B33
:10414000F3D115F001041BD100F0B6F80F4E07466D
:104150004FF480350DE03D2000F0B8F82A2000F043
:10416000B5F8802000F0B2F8A62000F0AFF80134D6
:10417000B561E319012BEED105480AF0D1FAFEE74B
:104180001F3818BF0120BDE8F08100BF00C0092022
:10419000523701002DE9F74F914604464F02FFF7D1
:1041A0005FFF00F089F829EAE97B019000264FEAD9
:1041B0004B2BDFF884A037E0C7F30743E8200093D8
:1041C00000F084F8009BC7F3072818465FFA88F8C8
:1041D000FDB200F07BF8404600F078F8284600F089
:1041E00075F8FF2000F072F8FF2000F06FF8FF2054
:1041F00000F06CF8FF2000F069F825464FF0000849
:104200000AE0284603F092FD05F5807003F08EFD6C
:1042100005F5007508F10108C845F2DB4FF480335D
:104220005C44CAF818300136019AB318012BC3D187
:104230000020BDE8FE8F00BF00C009202DE9F0413D
:10424000054690464C02002618E0E1B2C4F307226E
:10425000C4F307432846274604F58074FFF71AFF86
:1042600005F58070E1B2C4F30722C4F30743FFF7FA
:1042700011FF05F5007507F5007401364645E4DBCE
:104280000020BDE8F08108B5062813D8DFE800F06B
:1042900004070A0E10101000FFF7E2FE08E04FF4CA
:1042A000006304E04FF400730B8001E001230B6016
:1042B000002008BD042008BD034B4FF480329A61F2
:1042C00000209A61DA61704700C00920044B9860B1
:1042D000DA68D206FCD4024B9868C0B2704700BFBF
:1042E000000003401FB5684602A903F0A9FC9DF831
:1042F0000D209DF80C3002F00F0203F01F03520551
:1043000042EA03429DF80A309DF8090003F01F03BA
:1043100042EAC32300F03F0043EA40109DF8083012
:10432000C3F344031843BDF80E305B0603F10843A2
:10433000184305B000BD000010B5002302E0CC58C2
:10434000C4500433D41A032CF9D802F0030422F029
:104350000302801800238A1802E0D15CC1540133A3
:10436000A342FAD110BD002301E0C15401339342AE
:10437000FBD1704700221B4B70B5144653F8085C04
:1043800065B10668B5420AD153F8046C8568AE423F
:1043900005D11E88C588AE4201D105E00132013445
:1043A0000C33042CEAD10DE051B90F4B0C2202FB67
:1043B00004346089B0F5807F0CBF1020002070BDF0
:1043C000102070BDA1F10203594241EB0301002A04
:1043D0000CBF0A4641F00102002A0CBF1220002047
:1043E00070BD00BF240A00101C0A00100023024602
:1043F0001846410841EAC010D15C013340180B2B2C
:1044000000F0FF00F5D170472DE9F041056B04463F
:104410008D420E462BD00379EBB100F134084146B2
:1044200040782A460123FFF763F918BB226A636AC2
:104430002071D3189D4238BFE7780AD30BE0236A76
:104440006078ED1841462A460123FFF751F9013FF4
:10445000FFB2012FF3D886B1607804F134013246FF
:104460000123FFF7FDF858B92663BDE8F08100206D
:10447000BDE8F0810120BDE8F0813046BDE8F08163
:104480000120BDE8F08170B500210446FFF7BCFFB4
:1044900005465DBB2378032B20D16379F3B104F18A
:1044A0003406304629464FF400722563FFF75BFF60
:1044B0004AF65523A4F832320D4B607863630D4BF6
:1044C0003146C4F818326369A269C4F81C32236902
:1044D000C4F820320123FFF70BF9657100216078E1
:1044E0000A46FFF74DF9003018BF012070BD00BF2C
:1044F0005252614172724161F8B503690D4601F192
:104500000901002B40D043690C461F7B002607F0B1
:10451000080C9A5D2146202A12D0052A08BFE52200
:10452000BCF1000F06D0A2F14101C9B2192901D88E
:104530002032D2B2013604F8012B082E2146E8D1F0
:104540001A7A202A18D022462E2102F8011B0826AA
:1045500007F010079C5D1146202C0DD037B1A4F157
:104560004101C9B2192901D82034E4B2013602F858
:10457000014B0B2E1146EDD1DA7A2A72DA692A60E4
:104580001A8BAA80DB8AEB8000240C70AE690EB314
:10459000EB69FBB10369B3B1028C4FF6FF739A422A
:1045A00018BFC7690AD113E00021FEF785FF60B18B
:1045B000EB69013B9C420AD23055013437F8020BBB
:1045C0000028F1D104E01C4602E0044600E000248B
:1045D00000233355F8BD10B504460A46407804F16F
:1045E00034010123FFF73CF8A0B9B4F832224AF6AF
:1045F00055239A4210D1D4F86A20084B22F07F420A
:104600009A420AD0D4F8860020F07F40C01A18BF22
:10461000012010BD032010BD022010BD46415400F2
:104620002DE9F041036816461D78303D092D08D864
:104630005A783A2A05D10233012D036000F2ED8049
:1046400000E00025824B03EB85031C6B0C60002C03
:1046500000F0E680E068FEF76CFF002800F0E380E1
:1046600023786BB16078FEF7C7FFC20708D4002E2D
:1046700000F0DC8010F0040018BF0A20BDE8F081D3
:104680000023E8B223706070FEF77EFFC30700F1DD
:10469000D08016B1410700F1CF8000212046FFF7FE
:1046A0009AFF01280BD194F8F631002B00F0CA8054
:1046B000D4F8FA6120463146FFF78DFF00E000266E
:1046C000032800F0BC80002840F0BC80B4F83F30E4
:1046D000B3F5007F40F0B680B4F84A3003B9A36D5B
:1046E00094F8445023626A1ED2B2012AE57000F2A7
:1046F000A98094F84100A070002800F0A380421E19
:10470000024240F09F80B4F845100A07218140F032
:104710009980B4F8472002B9626DB4F84270002F56
:1047200000F0908005FB03F807EB111CC4446245C0
:10473000C0F08880CCEB0202B2FBF0F2002A00F05D
:10474000818040F6F5700125824205D94FF6F57556
:10475000AA428CBF0325022502320CEB0600F71992
:10476000032DE261E062676205D100296AD1216E02
:104770009200A1620DE0002964D04744022DA76297
:1047800001D1520005E00321514302F0010202EB86
:10479000510202F5FE720332B3EB522F55D34FF0A4
:1047A000FF3363610023032D236120D1B4F864201B
:1047B0006371B218A261607804F134010123FEF73D
:1047C0004FFFA0B9B4F832224AF655239A420ED1CF
:1047D000626B204B9A420AD11F4BD4F818229A429E
:1047E00001BFD4F820322361D4F81C326361184A27
:1047F0002570138F104601339BB21387E38000238B
:10480000236323711946D558A54208BF19500C33AC
:10481000302BF8D10020BDE8F0810B20BDE8F081FD
:104820000C20BDE8F0810F20BDE8F0813046BDE8E6
:10483000F0810320BDE8F0810A20BDE8F08101206D
:10484000BDE8F0810D20BDE8F0810D20BDE8F081CC
:104850001C0A0010525261417272416110B5044647
:1048600080B1037873B1C3888B420BD1C068FEF767
:1048700060FE48B16078FEF7BFFE10F0010018BF7F
:10488000032010BD092010BD0F2010BDB1F1090299
:10489000A1F10B03DBB218BF0122012B94BF00234F
:1048A00002F0010323B10F2902D0C068FEF756BE03
:1048B0007047C3690239023B99423DBF8278C36A9F
:1048C00002FB0130002070470129F8B504460D466F
:1048D00048D9C369994247D20378022B27D0032BCA
:1048E00030D0012B3BD101EB5106416A01EB56213F
:1048F000FFF78AFD002832D1616AF305013604EB27
:10490000D35301EB5621204693F83470FFF77CFD1A
:1049100028BBF60504EBD65494F83400E90747EABF
:10492000002001D50009F8BD0005000DF8BD416A61
:1049300001EB1521FFF768FD88B92D0604EBD5546E
:10494000A08EF8BD416A01EBD511FFF75DFD30B9CE
:104950006D0604EBD554606B20F07040F8BD4FF04D
:10496000FF30F8BD0120F8BD0120F8BD70B5044648
:104970000D46E1808168012939D00368DA699142E6
:1049800035D279B91A78032A01D1996A51B900222E
:10499000E2601A89AA4282BF9B6A03EB1513236166
:1049A00025D919E09E7836010DE02068FFF78CFFCD
:1049B0000146013019D0012919D92368DB699942D0
:1049C00017D2AD1BADB2B542EFD2E1602068FFF760
:1049D00070FF00EB15102061236805F00F053433DC
:1049E00003EB45156561002070BD012070BD0220FC
:1049F00070BD022070BD0129F8B504460D4616466B
:104A00005FD9C36999425ED20378022B3CD0032B55
:104A100045D00220012B51D101EB5107616A20469C
:104A200001EB5721FFF7F0FC002847D1FA05D20D22
:104A300015F001051CBFA11891F83410F3B21EBF88
:104A400001F00F0141EA0313DBB2A218616A82F898
:104A5000343001370123237101EB57212046FFF742
:104A6000D3FC58BBFF05FF0D15B1C6F3071607E0D1
:104A7000E31993F83430C6F3032623F00F031E43E3
:104A8000E71987F8346019E0416A01EB1521FFF757
:104A9000BBFC98B92D0604EBD555AE860EE0416AF5
:104AA00001EBD511FFF7B0FC40B96D0604EBD5550D
:104AB0006B6B03F070431E436E633035012323712B
:104AC000F8BD0220F8BD0220F8BDF8B504460E4638
:104AD00031B9076977B1C3699F4228BF01270AE04E
:104AE000FFF7F2FE012846D9E369984228BF37460E
:104AF00001D247E001273D46E36901359D4202D3DB
:104B0000012F3AD9022520462946FFF7DDFE68B17C
:104B1000A0F1FF314B4243EB0103012808BF43F0F2
:104B20000103002B2ED1BD42E6D128E020462946C4
:104B30006FF07042FFF75FFF331C18BF012300289E
:104B400014BF002303F0010323B1204631462A4657
:104B5000FFF751FF48B9636925615A1C11D0013B29
:104B60006361012363712846F8BD012814BF012049
:104B70004FF0FF30F8BD0120F8BD0020F8BD184609
:104B8000F8BD2846F8BD2DE9F041C6880446013637
:104B9000B6B20F46002E68D00369002B65D03207ED
:104BA00058D1C16801330361006819B90389B34260
:104BB0005BD94FE08378013B13EA16134AD1FFF724
:104BC00083FE0128054656D9431C57D02068C36987
:104BD0009D4239D3002F48D0E168FFF776FF0546A4
:104BE000002845D0012846D0013047D02068002158
:104BF000FFF70AFC0746002840D1206839463430C8
:104C00004FF40072FFF7AFFBD4F80080294640460E
:104C1000FFF74FFEC8F830004FF001080DE083F8B1
:104C2000048020680021FFF7EFFB002829D12368CA
:104C300001371A6BFFB201321A6323689A78BA42BD
:104C4000EDD81A6BD71B1F63E56020682946FFF774
:104C500030FE20612368E680343306F00F0603EB54
:104C6000461666610020BDE8F0810420BDE8F081B1
:104C70000720BDE8F0810220BDE8F0810120BDE8F9
:104C8000F0810120BDE8F0812DE9F74FFF26DFF824
:104C90003481054634464FF6FF7728682969FFF7C7
:104CA000B3FB8346002840F08680D5F8149099F82D
:104CB00000A0BAF1000F7CD0BAF1E50F99F80B30E3
:104CC0006DD003F03F03B3F10F0218BF012212EAC7
:104CD000D30264D10F2B4BD1EB69002B60D01AF0BB
:104CE000400F06D0EA8899F80D600AF0BF0A2A84BE
:104CF00001E0A24553D199F80D20B2424FD199F865
:104D000000400D2204F0BF04013C54434FF0010B5E
:104D1000002212F8081039F80100BBF1000F11D081
:104D20008DE80C00FEF7E6FB7F2C8346019B36D80E
:104D300033F81400FEF7DEFB9DE80C0083452ED10E
:104D4000013401E0B8422AD101320D2AE1D199F8AB
:104D50000020C2F38012BBF1000F0CBF002202F052
:104D60000102002A2AD033F81430002B26D016E096
:104D700024B94846FFF73AFB86421CD04FF0FF3378
:104D8000AA692B84D37A13F0010302D007E00B2B1E
:104D900011D019F80300D15C01338842F7D0FF2409
:104DA00028460021FFF7EFFE834600283FF475AF49
:104DB00001E04FF0040B5846BDE8FE8F0AF1FF34C6
:104DC000E4B2EDE79A3701002DE9F04F0B78064683
:104DD000A3F12F00424242EB00025C2B14BF1346AA
:104DE00042F0010385B00F4603B14F1C0024B460AC
:104DF0003B781F2B05D830462146FFF7B7FD74617D
:104E000020E1D6F81C800025C146C246785D6B1CA7
:104E10001F288CBF002401242F2808BF44F0010460
:104E20000393BCB95C2819D0812B00F008810121C3
:104E3000FEF742FB002800F002817F2806D8834B52
:104E400013F8012B12B18242FAD1F8E02AF8020BD2
:104E5000039DDBE71F2894BF0424002408EB4503CF
:104E60000CE033F8022DB2F1200118BF01212E2AE7
:104E70000CBF002201F001021AB9013D002DF0D152
:104E8000DDE0002228F81520B06920210B2208EB74
:104E9000450BFFF768FA4FF0000A01E00AF1010A3A
:104EA00039F8023BA3F120014A4242EB01022E2BCA
:104EB00014BF134642F00103002BEFD1BAF1000FEB
:104EC0000AD044F0030407E0013D05D14FF0000B88
:104ED0000823D9465E4A04E03BF8023D2E2BF3D16D
:104EE000F4E738F81A00002863D020280AF1010AF4
:104EF0000AD0BAEB050E18BF4FF0010E2E2814BFD2
:104F000000210EF0010111B144F00304E9E79B45D3
:104F100034BF00210121AA4508BF41F00101A1B120
:104F20000B2B02D144F0030443E0BEF1000F03D089
:104F3000AA4544F003043CD84FEA89095FFA89F98D
:104F4000AA460B234FF0080BCBE77F280CD9019220
:104F50000293FEF7B1FA019A029B10B1101810F8F3
:104F6000730C44F0020488B13A4911F801EBBEF128
:104F7000000F02D08645F8D108E0A0F1410189B2C6
:104F8000192998BF49F002090DD903E044F0030440
:104F90005F2008E0A0F1610189B2192903D8203807
:104FA00049F0010980B2B16901F80B000BF1010B66
:104FB00097E7B2691178E52901D105211170082B15
:104FC00004BF4FEA89095FFA89F909F00C030C2B39
:104FD00003D009F00302032A01D144F00204A2071E
:104FE0000AD409F00309B9F1010F08BF44F0100415
:104FF000042B08BF44F00804B3693046DC7200217A
:10500000FFF7B4FC10B93046FFF73EFEB369DB7A18
:1050100038B1042816D113F0040F14BF0420052062
:1050200010E05B070ED47369DA7AD10609D5039ACA
:10503000BF189A8A5B8B43EA0243B360E1E606201D
:1050400000E0052005B0BDE8F08F00BF5438010036
:105050009A3701005D380100F8B5018CC5884FF61C
:10506000FF73994208BF29460446FFF77FFC0146BB
:10507000B8B9E527012621692068FFF7C5F901467F
:1050800060B963691F7023681E71E388AB4208D260
:105090002046FFF778FD01460028ECD0042908BF20
:1050A00002210846F8BD2DE9F843FF26054634469F
:1050B0004FF00409DFF8F4804FF6FF7764E02868CA
:1050C000FFF7A2F98146002864D168690378002BB4
:1050D00068D0A3F1E50CDCF1000141EB0C012E2BB3
:1050E00008BF41F00101C27A002946D102F03F0217
:1050F000B2F10F0118BF012111EAD2013DD10F2AEF
:1051000032D1590605D5EA88467B03F0BF042A84CC
:1051100001E0A34231D1437BB3422ED103780D226B
:1051200003F03F03013BD5F81CE053434FF0010C63
:10513000002212F80810415ABCF1000F06D07F2B54
:105140001BD82EF813108C46013301E0B94214D15C
:1051500001320D2AEDD10278520620D57F2B0CD8D2
:1051600000222EF813201AE01CB9FFF73FF98642FF
:1051700012D04FF0FF332B840EE0FF24284600218D
:10518000FFF701FD814628B92969002997D1B9F1B6
:10519000000F01D000232B614846BDE8F883013C95
:1051A000E4B2EBE74FF00409F4E700BF9A370100DF
:1051B0000129F8B504460F4625D9C3690220994252
:1051C00023D217E020463946FFF77EFB0546B8B1EB
:1051D000012818D0411C14D0204639460022FFF780
:1051E0000AFC90B963695A1C02D00133636166718D
:1051F0002F4600E00126E3699F42E3D30020F8BD7B
:10520000F8BD0120F8BD0220F8BDF8BD73B51E46FB
:1052100015460B220446FFF78FF8052E09D97308AF
:1052200043EAC6362B88F61835F8023FB6B2002B93
:10523000F5D1072306F00F0101F13002392A88BFAA
:1052400001F137020DF80320013B3609F2D102A922
:10525000CA187E2102F8081C00E001369E4202D0E6
:10526000A25D202AF9D12022072B9FBF02A9CA18CC
:1052700012F8082C0133A2550136072EF3D97CBD54
:105280002DE9F043856985B00DF10408C7690C224A
:10529000044629464046FFF74FF89DF80F30DB07DC
:1052A00023D50023EB720126E361284641463A46A6
:1052B0003346FFF7ABFF20460021FFF757FB81463F
:1052C00058B92046FFF7E0FC814630B90136B6B246
:1052D000642EEAD14FF00709BAE0B9F1040F40F0AB
:1052E000B7809DF80F30EB72E7619DF80F309E0795
:1052F00004D401260CE00136B6B200E0002637F8EF
:105300001630002BF7D119360D2396FBF3F6B6B203
:1053100020460021FFF72AFB8146002840F09880B4
:105320000746054620682169FFF76EF88146D8B91F
:1053300063691B78A3F1E500424242EB0002002BB7
:1053400014BF134642F0010333B105B9E7880135B4
:10535000ADB2B54201D107E01D4620460121FFF75D
:1053600012FC81460028DDD0D9F1010338BF0023AB
:10537000012E94BF002203F00102002A4ED02046E5
:105380003946FFF7F3FA8146002861D1A069FFF79B
:105390002DF8751E304F8046ADB24FF6FF7620686F
:1053A0002169FFF731F88146002851D163690F2147
:1053B000EAB2D4F81CC04FF00D0ED972511E0EFB8C
:1053C00001F183F80D80187358838646B04218BFE8
:1053D0003CF811001EF807900EF1010E18BF0131C4
:1053E00023F80900002808BF3046BEF10D0FEDD1AB
:1053F000B04202D03CF8111009B942F040021A70D4
:10540000236801221A7120460021FFF7BCFB814668
:10541000F0B9013DADB2002DC1D100E0C3B12068AB
:105420002169FEF7F1FF814690B965694946284632
:105430002022FEF798FF0B222846A169FEF77CFF89
:10544000A3690122DB7A03F018032B7323681A7116
:10545000484605B0BDE8F0839A3701000128F8B549
:1054600004460D4623D8154B03EB8002166B7EB124
:105470000022184611469F58B74208BF11500C32FF
:10548000302AF8D1F068FEF752F890B1002333705B
:105490003DB12946002301F80C3B2046FEF73EF8BB
:1054A00048B1064B002003EB84042563F8BD0B20B4
:1054B000F8BD0220F8BD0220F8BD00BF1C0A001094
:1054C0002DE9F0430023D1B002F01F0403600191E5
:1054D000054604F01E0201A844A9FFF7A1F84DAB50
:1054E0004A9303AB06464B9320B944A80199FFF7B2
:1054F0006BFC0646499F56B9062647B114F0FE0FCD
:105500000CBF0021012144A8FEF734FF064614F029
:105510001C0F44D0A6B1042E0BD103E00C33302B6A
:1055200002D105E05A4A002399580029F6D197E0A4
:105530001226499F002E40F08B8044F0080408E0BA
:105540000826620700F18480FB7A13F0110F40F007
:105550008E8023072CD5FEF7C5FEB7F814807A8B12
:105560000023C7F80E004498FB72FB617B83BB826B
:10557000012352EA084803711AD04146D0F830900E
:10558000FFF716FE0646002862D1449808F1FF3363
:1055900003614946FEF738FF064648B158E0002E41
:1055A00056D1FB7ADE0660D4A00701D5D9075ED4B8
:1055B0002207449A469E136BBDF81601354948BF31
:1055C00044F02004EB612F62002351F808EC96456B
:1055D00007D151F804ECB64503D1B1F800E0864597
:1055E0001CD001330C31042BEFD100231946284E77
:1055F00003E001330C31042B26D08859DFF890E00A
:105600000028F6D10C265E430EEB06014EF806206C
:10561000469E48814E60BDF816610E811C494FF0D0
:105620000C0000FB031114F0FE0F498903D059B997
:105630004FF4807101E0013189B215480C2606FB58
:1056400003000133418100E000236B628BB9022625
:1056500044983146FFF71AF9304651B0BDE8F0835F
:1056600044A8FFF70DFE064663E70426F0E7072689
:10567000EEE7AC71B98A7B8B002643EA01432B61CC
:10568000FB692A60D288EB60AE60AE61AA80DFE77A
:105690001C0A0010240A00102DE9F74F9946002338
:1056A00004468846C9F80030818800681746FFF72D
:1056B000D5F8054610B1206829469EE0A3791A0660
:1056C00029D4D80705D420680721FFF7DFF807257C
:1056D00095E0E668A368F61AB74238BF3E4687E011
:1056E000A368DA0559D1206890F802B00BF1FF3BAE
:1056F0000BEA532B5FFA8BFBBBF1000F14D10BB9F4
:10570000206902E06169FFF7DFF8012809D8A37971
:1057100063F07F03A37120680221FFF7B7F8022529
:105720006DE0411C3FD06061D4F800A06169504633
:10573000FFF7BFF828B9A379504663F07F03A37140
:10574000EAE700EB0B0C770A08BFC4F818C024D0B6
:105750009AF8023007EB0B029A4288BFCBEB0307A3
:105760009AF801006246FBB24146CDF804C0FDF74D
:1057700077FFDDF804C0B0B921680B795BB10B6B22
:10578000CCEB030CBC4506D208EB4C2034314FF473
:105790000072FEF7D1FD7F0220E02068A169A768B2
:1057A000FEF732FE48B1A379206863F07F03A3714E
:1057B0000121FFF76BF8012521E0FF05A168FF0D2E
:1057C0002368C7F50077C905BE4238BF374603EBEB
:1057D000D151343140463A46FEF7AEFDA368B84495
:1057E000DB19A360D9F80030F61BDB19C9F80030CB
:1057F000002E7FF475AF20683146FFF747F8284642
:10580000BDE8FE8F2DE9F74F01931646019A00235C
:1058100004468846136081880068FFF71FF8054634
:1058200010B120682946C3E0A3791A0630D49B073B
:1058300005D420680721FFF729F80725BAE0E368B7
:10584000DE4228BF0026A5E0A368DA0575D12068EE
:1058500090F802B00BF1FF3B0BEA532B5FFA8BFB86
:10586000BBF1000F1DD133B9216959B9FFF72DF9EB
:105870000146206103E06169FFF727F9014600292D
:1058800000F08B80012909D1A37963F07F03A37114
:1058900020680221FEF7FAFF02258BE0481C52D057
:1058A00061612068A369026B9A4204D10021FEF76E
:1058B000ABFD002847D1D4F800A061695046FEF73F
:1058C000F8FF28B9A379504663F07F03A371E0E79E
:1058D000770A00EB0B0922D09AF8023007EB0B0293
:1058E0009A4288BFCBEB03079AF80100FBB241460E
:1058F0004A46FDF7FDFE824628BB2068016BC9EBD6
:105900000109B94509D2343008EB49214FF400723E
:10591000FEF712FD236883F804A07F0231E0A2683D
:10592000E3689A4207D350463946FEF76DFD50B9F9
:105930002368C3F83090C4F818902068A169A7685C
:10594000FEF762FD48B1A379206863F07F03A3717D
:105950000121FEF79BFF01252CE0A068FF052368CD
:10596000FF0DC7F50077C00503EBD050BE4238BF2E
:1059700037463A4634304146FEF7DEFC23680122C2
:105980001A71A368019ADB19A3601368B844DB1984
:105990001360F61B002E7FF457AFA368E2682068FF
:1059A000934288BFE360A379002143F02003A371F1
:1059B000FEF76CFF2846BDE8FE8F38B581880446A7
:1059C0000068FEF74BFF054610BBA37999061FD56B
:1059D0002068E169FEF718FD0546C8B9256AEB7A2B
:1059E00043F02003EB72E368EB6123696B831B0CCC
:1059F000AB82FEF777FCC5F81600A379012223F0ED
:105A00002003A37123681A712068FEF73CFD054648
:105A100020682946FEF73AFF284638BD38B50546C6
:105A2000FFF7CBFF044620BBA9882868FEF716FFC6
:105A30000446F0B96A6A013A032A13D80E480C21C9
:105A400001FB02035B89B3F5807F08BF234602D0C8
:105A50000BB1013B9BB24A43801843811BB90649F5
:105A60008B5000E0022428680021FEF70FFF04B9E4
:105A70002C60204638BD00BF1C0A0010F8B5044653
:105A80000D4681880068FEF7E9FE064610B12068E1
:105A9000314688E0A27911064ED4E3689D4203D9CD
:105AA00012F0020F08BF1D460022A368A260002D5D
:105AB00068D0206887787F026BB1013B691EB1FB1B
:105AC000F7F1B3FBF7F2914205D37A421340A3609A
:105AD000ED1A61690BE0216941B9FEF7F6FF012873
:105AE000014625D0421C18BF206111D061610029F8
:105AF00045D028E0A37920689B0704D5FEF7E5FF91
:105B0000014618B922E0FEF7DFFE0146481C09D124
:105B1000A379206863F07F03A3710121FEF7B6FE2D
:105B2000012642E0012903D92368DB69994205D3A4
:105B3000A37963F07F03A371206818E0A368616113
:105B4000DB19A360ED1BBD42D4D800E03D46A3683D
:105B50005B19A360EB05DA0D9BB127683846FEF7A9
:105B6000A8FE48B9A379384663F07F03A3710221E8
:105B7000FEF78CFE022618E000EB552502E00D46EC
:105B800000E01546A368DA0503D0A269954218BF64
:105B9000A561E2682068934281BFE360A37943F086
:105BA0002003A3710021FEF771FE3046F8BD30B529
:105BB0000446C7B0019101A821460022FEF730FD3E
:105BC0000546F8B943ABA36102ABE36120460199F6
:105BD000FFF7FAF8054690B9636943B1DA7A05250B
:105BE000D0060FD59A8A5B8B43EA0243A3602368F1
:105BF0002046DB880021A380FEF7B8FE0546042D71
:105C000008BF052520682946FEF740FE284647B014
:105C100030BD70B50446C4B00E4681880068FEF7FA
:105C20001DFE0546F8B926B920462946FEF79EFE18
:105C300018E041ABA36100ABE3612046FFF733FA04
:105C4000042808BF256100D060B920463146FEF720
:105C500053FC00212046FEF796FF042802D10023C2
:105C6000236100E0054620682946FEF70FFE28461E
:105C700044B070BD30B5D1B001900C4601A844A924
:105C80000022FEF7CDFC054688B94DAB4A9344A8E7
:105C900003AB01994B93FFF797F8054638B9499B39
:105CA00023B144A82146FEF727FC00E006254498CE
:105CB0002946FEF7EBFD284651B030BD2DE9F347EC
:105CC00002AB43F8040D0D46144611461846002257
:105CD000FEF7A6FC0646002854D12368D3F81C80A2
:105CE0005A69A8F102018A4298BF2A604AD993F8FA
:105CF0000090B9F1010F13D14FF002080746206858
:105D00004146FEF7E1FD431C2FD001282FD000B9FA
:105D10000137236808F10108DB699845EFD329E0D2
:105D2000D3F824A002460346074652B920685146DC
:105D3000FEF76AFBE8B923680AF1010A34334FF42D
:105D40000072B9F1020F05D1198801B90137023388
:105D5000023A06E0196821F0704101B901370433B5
:105D6000043AB8F10108E0D104E0012602E002267D
:105D700000E006462368B9F1030F5F6101D10122FB
:105D80005A712F6020683146FEF780FD3046BDE82D
:105D9000FC8770B5818804460068FEF75FFD064603
:105DA00000282ED1A379180603D499072FD40726EB
:105DB00027E0022625E043F02003E560A371206878
:105DC0002DB92169FFF7F4F92561064614E06169F0
:105DD000FEF77AFD421C05461ED0012820D11DE0A9
:105DE00061696FF07042FEF706FE064628B920682A
:105DF0002946FFF7DDF906461EB1A37963F07F035C
:105E0000A37120683146FEF741FD304670BDA5689C
:105E1000E268AA42CFD8F4E70126EEE70226ECE7D3
:105E20002068C3699D42ECD2DAE730B5D9B0019061
:105E300043A901A80122FEF7F3FB0546002846D13D
:105E400055AB499343A802AB01994A93FEF7BCFFB7
:105E5000054600283BD143A80221FEF78BFA0546F0
:105E6000002834D1489B06252BB1DA7A12F0010FB5
:105E70000CBF002507259C8A5A8B45BBDB7A42EA7A
:105E80000444DD062AD50225012C20D94CA843A9BB
:105E90002422FEF751FA4CA802214E94FEF766FD2B
:105EA0000546A0B94CA8FFF7FEF8054610B1042836
:105EB00014D00CE007250AE02CB143982146FFF7E7
:105EC00077F9054618B94398FEF7DDFA0546439879
:105ED0002946FEF7DBFC284659B030BD43A8FFF742
:105EE000BBF805460028E7D0F1E72DE9F04FD1B027
:105EF0000190FEF7F7F944A98346012201A8FEF7B5
:105F00008FFB8146002840F08D804DAB4A9344A81A
:105F100003AB01994B93FEF757FF814600287FD0D2
:105F200004287FD144980021FEF7CFFD4FF00709E8
:105F3000054600285FD0012808BF4FF002095AD05B
:105F4000431C08BF4FF0010955D073E0449C29461B
:105F50002046FEF7AEFC04F1340641464FF40072D1
:105F600007463046FEF7FFF920210B223046FEF7A8
:105F7000FAF9102325FA03FA4FF02E091FFA85F8D3
:105F8000202284F83F30314684F83490C4F84AB077
:105F9000A4F84E80A4F848A004F15400FEF7CCF910
:105FA000449A84F855901178469B032903D1916A4D
:105FB0008B4208BF0023A4F86E301B0CA4F8683095
:105FC000947811E044980123002107630371FEF7E0
:105FD0001BFA0146814670B930464FF40072FEF755
:105FE000C2F9013C0137E4B2002CEBD144A8FFF721
:105FF00047F9814620B144982946FFF7D9F811E0C6
:10600000499B10224498DA72C3F816B0A3F81A809C
:10601000A3F814A001230371FEF735FA814601E0CD
:106020004FF0080944984946FEF730FC484651B005
:10603000BDE8F08F44980021FEF7E6F980468146DE
:10604000002883D0D7E770B5D0B001900C46154634
:1060500001A844A90122FEF7E3FA0646D0B94DABE8
:106060004A9344A803AB01994B93FEF7ADFE064655
:1060700080B9499B06266BB1DA7A05F0270522EA3A
:106080000502254015434498DD7201230371FEF794
:10609000FAF9064644983146FEF7F8FB304650B010
:1060A00070BD30B5D1B001900C4601A844A90122C1
:1060B000FEF7B6FA0546B0B94DAB4A9344A803AB18
:1060C00001994B93FEF780FE054660B9499B062572
:1060D0004BB1E2884498DA82A4881C8301230371BF
:1060E000FEF7D1F9054644982946FEF7CFFB28462E
:1060F00051B030BD30B5DFB001900C4601A843A9C6
:106100000122FEF78DFA0546002876D1439B43A86D
:106110004C935BAB4993019902AB4A93FEF754FE53
:106120000546002869D143A80221FEF723F9054658
:10613000002862D14899042500295ED00B3155A86A
:106140001522FEF7F9F84CA843A92422FEF7F4F82B
:106150004CA82146FEF738FE054600284CD00428FE
:106160004BD14CA8FFF78CF80546002845D1519C2F
:10617000132204F10D000DF5AB71FEF7DDF89DF86B
:106180005431012243F02003E372439B1A714E9B6A
:10619000459A9A4226D0E37ADA0623D5638B4C9D42
:1061A000A18A284643EA0141FEF783FB0146002805
:1061B0002AD02846FEF728F94C9B0546E8B993F803
:1061C00055202E2A0ED11A78032A03D19A6A4E99A5
:1061D000914200D04E9DA3F86E5001222D0CA3F8E1
:1061E00068501A7143A8FEF737FF054628B943984F
:1061F000FEF749F9054600E0082543982946FEF7D1
:1062000045FB28465FB030BD0225F6E72DE9F04F8B
:10621000054689B00B20012D0191164600F20A8235
:10622000A74B0C2003EB85031C6B002C00F00282B3
:10623000002323702846FDF7A7F9C20700F1F38178
:10624000430700F1F2812846012107AAFDF798FAD9
:10625000002840F0EE81079B7F2B40F2EA810199F4
:10626000721E00290CBF4FF03F094FF00009C9EB27
:1062700003033242079300D186B94FF4FA60B3FBAF
:10628000F0F09049002200E0013231F8026FB04294
:10629000FAD38D4901EB4202B2F8A4605FEA5628B6
:1062A00008BF4FF0010804D0B8F1800F28BF4FF0AD
:1062B0008008B3FBF8F740F6F572974205D902F56E
:1062C0007042974200F2B981C2E10322574301377D
:1062D0007F08BF184FF0010A07F5FE770337202229
:1062E0007F0A04924FF0010B049A0BEB0901D619B7
:1062F000761806EB080293420391C0F09881284675
:10630000032106AAFDF73CFA20B9069B13B1B3F5A9
:10631000004F01D901230693069A0499531E9B1935
:106320005242BAF1030F03EA020208BF039BC6EB15
:10633000020606BF9B19B344BF190696079E08BF05
:106340000393CBEB0603DB1B5B1AB3FBF8F305935C
:10635000AAF1020CDCF10003059943EB0C0340F6B3
:10636000F57291428CBF002303F00103002B40F033
:106370005E81AAF10300424242EB00024FF6F57340
:10638000029299428CBF002202F00102002A40F0E2
:106390004E81019B002B45D104F13403019918462D
:1063A0004FF400720093FDF7DEFF484A4E44C4F8F4
:1063B000F221474A009B964284BF4FF0FF31A4F878
:1063C000F8110AD843F6C162B6FBF2F684F8F96117
:1063D000B60846F03F0684F8F861FE2284F8F721FB
:1063E0000C22BAF1030F05D0079AB2F5803F2CBFFB
:1063F0000622042284F8F6213F22C4F8FA21079AE3
:106400001946C4F8FE214AF65522A4F8322228463D
:1064100000220123FDF76CF9002840F00A81F823DF
:10642000019301E0F021019104F13406002130468E
:106430004FF40072FDF797FF0B2230462549FDF718
:106440007BFF0299012384F8443000290CBF4FF4EC
:1064500000730023A4F84530079B4FF40072B3F596
:10646000803FA4F83F20019A34BFA4F84730636509
:106470003F23FF2184F8492084F84180A4F842B0EA
:10648000A4F84C30A4F84E10C4F85090FDF72AFF41
:10649000029A069012B3022323660123A4F8643003
:1064A0008023062184F874302923C4F87700A4F8E7
:1064B0006610A76584F8763004F17B0006491AE07F
:1064C0001C0A0010263801009A37010080010100E3
:1064D000FF03FB006438010070380100802384F85A
:1064E00058305E492923C4F85B00A4F84A7084F848
:1064F0005A3004F15F001322FDF71EFF4AF65522C1
:10650000A4F83222284631464A460123FDF7F0F826
:10651000002840F08E80029B33B109F10602284624
:1065200031460123FDF7E4F8002130464FF40072B4
:10653000FDF719FFBAF1030F0AD0494BBAF1010F69
:10654000019918BF6FF0FF030B43069363630AE0E2
:10655000019A62F0FF03069363634FF0FF33A36376
:106560006FF07043E36331462846039A0123FDF739
:10657000BFF8014600285CD1039B30464FF40072FF
:1065800003F1010AFDF7EFFE01230BE02846314637
:1065900052460123FDF7ACF800284AD1069B0AF1C8
:1065A000010A01330693069BBB42EFD3029A04997A
:1065B000002A08BF8846524600E03A46284631463F
:1065C0000123571CFDF794F8002832D1B8F10108D7
:1065D000F3D1029BF3B1234B059A6363224B4AF636
:1065E0005521C4F81832531EC4F81C324FF0FF3343
:1065F000A4F83212C4F8203209F101023146012315
:106600002846FDF775F809F10702284631460123AF
:10661000FDF76EF8002128460A46FDF7B1F8003074
:1066200018BF012006E0032004E00A2002E00E204B
:1066300000E0012009B0BDE8F08F8237BF00013FC4
:1066400000217F0A4FF0030A04914FF0200B4BE624
:1066500002377F004FF0020A3EE600BF8438010097
:1066600000FFFF00525261417272416170B50546F0
:106670000E4608460C4900F005FF002410E03046A5
:106680000A4900F09FFDAB6830469C4236BFEB687C
:1066900005F1100353F824300134196800F092FD1D
:1066A000AB689C42EBD370BD98380100AC38010058
:1066B0002DE9F041044608460D46174600F0CCF996
:1066C000002823DD3846144900F0DCFE002618E0DF
:1066D000E368284653F82680D8F8001000F0E8F95F
:1066E00070B1D8F8041029B10A780C4B002A08BF01
:1066F000194600E009493846BDE8F04100F0C2BE45
:106700000136A3689E42E3D3BDE8F08120463946B6
:10671000BDE8F041AAE700BFD7380100B338010057
:1067200038B510460C4608F0A7FD0546204600F097
:1067300093F9691CA842D8BF29462046BDE83840D5
:1067400000F0DEBA2DE9F8430446884616460846AE
:1067500020221F4900F08AFA002829D0204641460D
:106760001B4AFFF7DDFF204641463246BDE8F843AD
:106770009EE7E368404653F825902022D9F80010A0
:1067800000F074FA90B14146D9F800202046FFF796
:10679000C7FF304600F065F9D9F808704046314629
:1067A000D9F80C20D9F81030B84705E0013500E0E1
:1067B0000546A3689D42DCD3A3689D4205D30549E5
:1067C0003046BDE8F84300F05DBEBDE8F88300BF89
:1067D000E7380100D738010070B5044608460E4678
:1067E00008F04AFD7F2805D904F138000A4900F075
:1067F00049FE0BE004F124052846314600F042FE34
:1068000004F1380220462946FFF79CFF04F13800C6
:10681000BDE8704000F003BCEC3801007FB5029386
:10682000089B03910493099B01A90192059300F031
:1068300003F807B000BD00BF2DE9F8438268436844
:1068400004469A420E461CD30768DF1919D2B900D4
:10685000C06807F06DFFA568E0604FEA85080DE0AD
:10686000142004F01FFB00211422814607F094FE3F
:10687000E368013543F8089008F10408BD42EFD3FE
:106880006760A768E36853F827500FCE0FC53368D9
:1068900001372B60A760BDE8F8830000C26810B51F
:1068A00004462AB1036861689B6898470023E36047
:1068B00010BDF8B504460D460FE0DB1B9E42A8BF95
:1068C0001E4629463246C01907F0C0FDE36820463F
:1068D0009B19E360FFF7E2FFAD19284608F0CCFCF6
:1068E000E768A368C2199A4206466068E5D832464E
:1068F000C019294607F0AAFDE3689E19E660F8BDB5
:106900002DE9F0431F46036889B0DB6804460E4654
:106910001546DDF84090DDF8448098472C23324935
:10692000032205A8ADF8183007F090FD0A23ADF852
:106930001C30236820465B6998472C49024601A811
:1069400004F0A1FA204601A9FFF7B3FF204606A9EB
:10695000FFF7AFFF20463146FFF7ABFF204606A901
:10696000FFF7A7FF20462946FFF7A3FF204606A909
:10697000FFF79FFF77B138462F2108F08DFD20B932
:1069800038465C2108F088FD00B1471C2046394696
:10699000FFF78FFF204606A9FFF78BFFB9F1000F25
:1069A00007D020464946FFF784FF204605A9FFF798
:1069B00080FF204606A9FFF77CFFB8F1000F08D042
:1069C0000A4901A8424604F05EFA204601A9FFF7F1
:1069D00070FF204607A9FFF76CFF236820461B695C
:1069E000984709B0BDE8F083E13A0100053901009C
:1069F00037B50093069B0D461446019302492A467B
:106A00002346FFF77DFF3EBD0839010037B50093EF
:106A1000069B0D461446019302492A462346FFF77A
:106A20006FFF3EBD0D39010037B50093069B0D4643
:106A30001446019302492A462346FFF761FF3EBDF3
:106A40006E2B010007F0D0B910B50446806808B17C
:106A500004F02CFA204610BD806808F00DBC0068D8
:106A60007047836800221A70704710B5846803E08D
:106A700009F056F804F8010C14F8010B0028F7D1BE
:106A800010BD10B5846803E009F056F804F8010C55
:106A900014F8010B0028F7D110BD08B503460846CD
:106AA000996808F09DFAD0F1010038BF002008BDB8
:106AB00008B5806808F0CEF9D0F1010038BF002099
:106AC00008BD2DE9F84F0D780E46002D33D08468AF
:106AD0004FF0FF37237829E0284609F021F80146D6
